:020000040800F2
:1000000080040020010100081D190008A517000840
:1000100019190008CF040008E71C000800000000C0
:10002000000000000000000000000000251B000888
:10003000FD070008000000001F190008271B00082A
:100040001B0100081B0100081B0100081B01000820
:100050001B0100081B0100081B0100081B01000810
:100060001B0100081B0100081B0100081B01000800
:100070001B0100081B0100081B0100081B010008F0
:100080001B0100081B0100081B0100081B010008E0
:100090001B0100081B0100081B0100081B010008D0
:1000A0001B0100081B0100081B0100081B010008C0
:1000B0001B010008E91B00081B0100081B010008C8
:1000C0001B0100081B0100081B0100081B010008A0
:1000D0001B0100081B0100081B0100081B01000890
:1000E0001B0100081B0100081B010008DFF80CD0F1
:1000F00000F0CCF9004800471D1F000880040020D4
:100100000648804706480047FEE7FEE7FEE7FEE7B1
:10011000FEE7FEE7FEE7FEE7FEE7FEE7911B0008CD
:10012000ED000008202A04DB203A21FA02F0002129
:10013000704721FA02F3D040C2F1200291400843F7
:1001400019467047D2B201E000F8012B491EFBD2DC
:1001500070470022F6E710B513460A4604461946D2
:10016000FFF7F0FF204610BDF0B480EA0102D40F83
:100170004200B2EB410F02D20246084611464A0045
:1001800042D0C30DDDB2C1F3C752AD1A202D35DA0E
:10019000C1F3160141F4000204B15242C5F1200638
:1001A00002FA06F12A411044B3EBD05F23D0C4B168
:1001B000012DA0EBC35009DCF0BC4FF0004202EA75
:1001C000C352DBB200F5000000F0D5B8400000F1EA
:1001D000807000EBC350A0F1807040EAD1704900FC
:1001E00009E0490841EAC071A0EBC35000F50000E6
:1001F000400800EBC350F0BC00F0B4B861420122EB
:1002000002EB4101001BF6E7F0BC704781F00041B2
:10021000AAE780F00040A7E72DE9FE4F81EA03043A
:1002200004F0004421F0004100944FF0000B23F053
:10023000004350EA01045ED052EA03045BD0C3F3EA
:100240000A54C1F30A552C44A4F2F3340194A0FBE0
:100250000254C1F3130141F48011C3F3130343F4B7
:10026000801301FB024400FB034E840A970A44EA10
:10027000815447EA8357A4FB076802958D0A05FB62
:1002800007854FEA932C04FB0C542705029D4FEA87
:10029000065847EA1637B5EB08056EEB070C870ED4
:1002A000920E47EA811742EA8312A7FB0201B6EBDE
:1002B0000B0164EB00042B0D43EA0C335E1844EB96
:1002C0001C50DA465146E7FB0201C5F313044FEA1E
:1002D0000B3343EA14534FEA0432019C43EA06030A
:1002E000A4F10C040294009CCDE900B400F080F865
:1002F00003B0BDE8F08F00200146F9E70EB540F2EB
:10030000334102910021CDE900110A460B4600F06D
:100310006FF803B000BD01F0004330B421F000419C
:1003200050EA010206D00A0DA2F56072C1F3130172
:10033000002A02DC30BC00207047440F44EAC104AC
:10034000C100E01830BC00EBC25000F00BB8000058
:10035000002801DBC0F10040002901DBC1F10041B0
:10036000814270470029A8BF7047401C490008BF60
:1003700020F00100704710B4B0FA80FC00FA0CF0D5
:1003800050EA010404BF10BC704749B1CCF120040D
:1003900021FA04F411FA0CF118BF0121214308439A
:1003A000A3EB0C01CB1D4FEA00614FEA102042BFC6
:1003B000002010BC704700EBC35010440029A4BFBC
:1003C00010BC7047401C490008BF20F0010010BC61
:1003D000704710B5141E73F1000408DA401C41F197
:1003E000000192185B411A4301D120F0010010BDB9
:1003F0002DE9F04D92469B4611B1B1FA81F202E02F
:10040000B0FA80F22032904600F052F804460F46CF
:1004100040EA0A0041EA0B0153465A46084313D00A
:10042000114653EA010019D0C8F140025046FFF7C7
:1004300079FE05460E4650465946424600F038F8C9
:10044000084305D0012004E020463946BDE8F08D80
:100450000020054346EAE0762C4337430A986305BB
:10046000E40AA0EB08000022FD0A44EA47540A30DF
:1004700002D500200146E9E7010510196941DDE9CF
:10048000084500196941BDE8F04DA2E7064C074D4B
:1004900006E0E06840F0010394E807009847103454
:1004A000AC42F6D3FFF726FE98200008B8200008DB
:1004B000202A04DB203A00FA02F100207047914024
:1004C000C2F1200320FA03F319439040704700BFA4
:1004D000FEE7000070B5002401251EE00122110294
:1004E000104800F03FFB80210E4800F033FB18B1AC
:1004F00044EA0500C4B200E000BF642000F07FF9C8
:1005000000224FF48071074800F02CFB642000F0BB
:1005100076F94FF6FF7000EA4505802DDEDD2046B6
:1005200070BD0000000C014070B50546642000F06D
:1005300066F9012427E005EA040028B101228021A0
:10054000164800F00FFB04E000228021134800F061
:1005500009FB01221102114800F004FB642000F0A5
:100560004EF900224FF480710C4800F0FBFA642031
:1005700000F045F900228021084800F0F3FA4FF618
:10058000FF7000EA4404802CD5DD0122802103485D
:1005900000F0E8FA642000F032F970BD000C014070
:1005A00070B504460025012240210A4800F0DAFA1D
:1005B0002046FFF7B9FFFFF78DFF054600224021D7
:1005C000044800F0CFFA00228021024800F0CAFA65
:1005D000284670BD000C014070B505460C4601224E
:1005E0004021074800F0BEFA2846FFF79DFF20464D
:1005F000FFF79AFF00224021014800F0B3FA70BDD6
:10060000000C01402DE9F041544800780C287DD2BF
:10061000DFE800F0060C141C2D333B434751555BBB
:10062000FF204E49887200F0A1F885E0FF204B4979
:100630008872CC20487201F0E9FB7DE0FF20474939
:1006400088724420487201F0E1FB75E0FF204349C5
:10065000887208464068401D486008464068404926
:10066000884203D900203D494860887264E0FF2039
:100670003A49887200F07AF85EE0FF2037498872C4
:10068000CC20487201F0C2FB56E0FF20334988724B
:10069000BE20487201F0BAFB4EE000202F490872DC
:1006A0004AE0FF202D49887201F0C2F92B48007AF8
:1006B0002C49488040E00020284908723CE0FF2097
:1006C0002649887201F0B4F936E02648408823496B
:1006D000097A40EA01202349488008464088B0F55D
:1006E000006F16DD08464088C043401C488048889B
:1006F000FFF704FE064600221B4BFFF78DFD81F03D
:1007000000410446FFF707FE164900E013E0486089
:100710000DE014494888FFF7F1FD06460022124B10
:10072000FFF77AFD0446FFF7F6FD0E494860FF200B
:100730000C49087000E000BF00BF0848807A20B96B
:1007400006480078401C05490870044800780C28C9
:1007500002D1002001490870BDE8F081300000207E
:10076000287C0600040000200000B03F10B51E48A1
:10077000008830B1B0F5F07F0AD0B0F5077F1CD10A
:100780000CE000224FF40061184800F0EBF914E08F
:100790000122D102154800F0E5F90EE04FF40061A6
:1007A000124800F0D7F9002803DDFF201049087037
:1007B00002E000200E49087000BF00BF0A48008810
:1007C000401D0949088008460088B0F57F7F08DD94
:1007D000002008800749087007498872044800789B
:1007E00010BD00BFFCE7000000000020000C01402D
:1007F0000C0000200300002030000020704700E0C3
:10080000401E0028FCD170477047000070B50446B8
:1008100000F0AEF906462546681C10B10448007881
:10082000054400BF00F0A4F9801BA842FAD370BDB4
:10083000280000202DE9F8470346002294466EE187
:100840004FF0010808FA02F4D1F8008008EA040029
:10085000A0427DD1DFF8DCA2D1F80480A8EB0A0920
:10086000D0453AD014DCB8F1030F50D009DCB8F110
:10087000000F31D0B8F1010F1CD0B8F1020F49D1EF
:1008800020E0B8F1110F18D0B8F1120F42D11EE0DC
:10089000B9F5881F25D006DCB9F5803F20D0B9F521
:1008A000801F37D11AE0B9F5001F18D0B9F5041F21
:1008B00030D117E0D1F80CC02DE0D1F80C8008F150
:1008C000040C28E0D1F80C8008F1080C23E0D1F8E2
:1008D0000C8008F10C0C1EE000BF00BF00BF00BF81
:1008E00000BF00BFD1F80880B8F1000F02D14FF06F
:1008F000040C0BE0D1F80880B8F1010F03D14FF0E0
:10090000080C1C6102E04FF0080C5C6103E04FF042
:10091000000C00E000BF00BFFF2801D8984601E0AE
:1009200003F104084646FF2802D84FEA820803E094
:10093000A2F108084FEA88084746D6F800804FF031
:100940000F0909FA07F928EA09080CFA07F900E083
:1009500088E048EA0908C6F80080D1F8048008F069
:100960008058B8F1805F7DD100BFDFF8CC81D8F826
:10097000188048F00108DFF8C091C9F81880C8460F
:10098000D8F8188008F00108CDF8008000BF00BF3B
:100990004FEAB9384FEA920958F829504FEA82785D
:1009A0004FEA18794FF00F0808FA09F825EA080508
:1009B000DFF88881434502D14FF0000816E0DFF8E8
:1009C0008081434502D14FF001080FE0DFF87481C8
:1009D000434502D14FF0020808E0DFF86C8143453F
:1009E00002D14FF0030801E04FF004084FEA82798A
:1009F0004FEA197908FA09F848EA0505DFF84C8149
:100A00004FEA920948F82950D1F8048008F4803858
:100A1000B8F5803F0AD1DFF83881D8F8008048EA7D
:100A20000008DFF82C91C9F8008009E0DFF8208188
:100A3000D8F8008028EA0008DFF81491C9F800808F
:100A4000D1F8048008F40038B8F5003F10D1DFF881
:100A5000008108F10408D8F8008048EA0008DFF8AF
:100A6000F09000E05AE009F10409C9F800800DE0B7
:100A7000DFF8DC8008F10408D8F8008028EA0008D4
:100A8000DFF8CC9009F10409C9F80080D1F804809E
:100A900008F48018B8F5801F0ED1DFF8B48008F193
:100AA0000808D8F8008048EA0008DFF8A49009F1A7
:100AB0000809C9F800800DE0DFF8948008F1080803
:100AC000D8F8008028EA0008DFF8849009F10809C6
:100AD000C9F80080D1F8048008F40018B8F5001FA8
:100AE0000ED1DFF86C8008F10C08D8F8008048EAD5
:100AF0000008DFF85C9009F10C09C9F800800DE0EE
:100B0000DFF84C8008F10C08D8F8008028EA0008CB
:100B1000DFF83C9009F10C09C9F80080521CD1F8AB
:100B2000008028FA02F8B8F1000F7FF489AEBDE822
:100B3000F88700000000111000100240000801407A
:100B4000000C014000100140001401400800014069
:100B500000040140024693680B400BB1012000E005
:100B6000002070470AB1016101E00B040361704786
:100B7000014800687047000020000020034800681A
:100B800003490978084401490860704720000020A3
:100B90002800002010B50848006840F01000064901
:100BA0000860032000F0A8F8002000F007F800F02B
:100BB0002BF8002010BD00000020024070B5044654
:100BC0000E4800784FF47A71B1FBF0F00C490968D7
:100BD000B1FBF0F5284600F0E5FB08B1012070BD3F
:100BE000102C07D200222146501E00F047F805487D
:100BF000046001E00120F2E70020F0E72800002077
:100C00002C0000202400002008B500BF1148806996
:100C100040F001000F4988610846806900F001003A
:100C2000009000BF00BF00BF0846C06940F0805080
:100C3000C8610846C06900F08050009000BF00BF46
:100C400000BF0549486820F0E06040F0007048604F
:100C500000BF08BD001002400000014001460846E8
:100C6000002809DB00F01F0301229A4043099B0082
:100C700003F1E023C3F8002100BF70472DE9F05FC6
:100C800080460D461646002701F01CF907463946F6
:100C90002A46334601F00700C0F1070ABAF1040FF3
:100CA00002D94FF0040A01E0C0F1070AD14600F171
:100CB000040ABAF1070F02D24FF0000A01E0A0F1D6
:100CC000030AD4464FF0010A0AFA09FAAAF1010A06
:100CD0000AEA020A0AFA0CFA4FF0010B0BFA0CFBB3
:100CE000ABF1010B0BEA030B4AEA0B042146404629
:100CF00001F0F0F8BDE8F09F00BF00F00702064BDE
:100D000019684FF6FF031940044B0B4343EA0221D5
:100D1000014B196000BF70470CED00E00000FA05C0
:100D200070B504460D460CB9012070BD5A480068E4
:100D300000F00700A8420ED25748006820F00700D4
:100D40002843554908600846006800F00700A8429B
:100D500001D00120E9E7207800F0020002281DD12F
:100D6000207800F00400042805D14C48406840F485
:100D7000E0604A494860207800F00800082805D162
:100D80004648406840F460504449486043484068E1
:100D900020F0F000A168084340494860207800F046
:100DA000010078B36068012806D13C48006800F46F
:100DB000003090B90120B8E76068022806D13748B2
:100DC000006800F0007040B90120AEE733480068C9
:100DD00000F0020008B90120A7E73048406820F081
:100DE0000300616808432D494860FFF7C1FE0646CD
:100DF00009E0FFF7BDFE801B41F28831884202D92D
:100E0000032092E707E02548406800F00C00616885
:100E1000B0EB810FEDD12048006800F00700A84238
:100E20000ED91D48006820F0070028431A490860C1
:100E30000846006800F00700A84201D0012074E7CE
:100E4000207800F00400042807D11448406820F4FA
:100E5000E060E168084311494860207800F008002C
:100E6000082808D10D48406820F46050216940EA04
:100E7000C1000A49486000F019F808494968C1F3FF
:100E80000311074A515CC8400649086006480068DB
:100E9000FFF794FE002048E70020024000100240C7
:100EA000802000082C00002024000020F0B585B030
:100EB0000FF26C0C9CE8E01001A8A0E8E0101CA563
:100EC0002D68009500210022002300240020194DE8
:100ED000696801F00C05F5B1042D02D0082D19D177
:100EE00001E0154819E001ADC1F38346AC5D01F4A2
:100EF000803555B10F4D6D68C5F340451DF805208F
:100F00000D4D6543B5FBF2F302E00C4D04FB05F318
:100F1000184602E000BF084800BF00BF05B0F0BDA2
:100F200002030405060708090A0B0C0D0E0F10102A
:100F3000010200000010024000127A0000093D008A
:100F4000F8B504460CB90120F8BD207800F0010086
:100F5000002878D0F848406800F00C0004280CD035
:100F6000F548406800F00C00082811D1F2484068AC
:100F700000F48030B0F5803F0AD1EF48006800F4FB
:100F8000003000285FD0606800285CD10120DBE7DA
:100F900000BF6068B0F5803F06D1E748006840F4C4
:100FA0008030E549086028E0606858B9E248006888
:100FB00020F48030E04908600846006820F4802072
:100FC00008601AE06068B0F5A02F0BD1DA4800681D
:100FD00040F48020D84908600846006840F480301A
:100FE00008600AE0D448006820F48030D2490860E4
:100FF0000846006820F48020086000BF606888B15F
:10100000FFF7B6FD054606E0FFF7B2FD401B64287A
:1010100001D9032098E7C848006800F40030002890
:10102000F2D010E0FFF7A4FD054606E0FFF7A0FDB3
:10103000401B642801D9032086E7BF48006800F4FC
:1010400000300028F2D1207800F00200022857D1A9
:10105000B948406800F00C0050B1B748406800F053
:101060000C00082818D1B448406800F4803098B9C2
:10107000B148006800F0020020B12069012801D0C9
:10108000012061E7AC48006820F0F800616940EA9F
:10109000C100A949086033E02069E8B10120A749EF
:1010A0000860FFF765FD054606E0FFF761FD401BA0
:1010B000022801D9032047E79F48006800F002009A
:1010C0000028F2D09C48006820F0F800616940EAEE
:1010D000C1009949086013E0002098490860FFF7B3
:1010E00047FD054606E0FFF743FD401B022801D9F6
:1010F000032029E79048006800F002000028F2D1A0
:10110000207800F0080008282DD1A069B8B101208E
:101110008B490860FFF72CFD054606E0FFF728FD28
:10112000401B022801D903200EE78348406A00F0E3
:1011300002000028F2D0012000F0F2FB13E00020B2
:101140007F490860FFF714FD054606E0FFF710FD34
:10115000401B022801D90320F6E67748406A00F0D8
:1011600002000028F2D1207800F00400042873D196
:1011700000277148C06900F0805070B900BF6E4808
:10118000C06940F080506C49C8610846C06900F0F1
:101190008050009000BF00BF01276A48006800F43B
:1011A0008070B0B96748006840F480706549086095
:1011B000FFF7DEFC054606E0FFF7DAFC401B64287B
:1011C00001D90320C0E65F48006800F48070002861
:1011D000F2D000BFE068012806D15748006A40F00D
:1011E00001005549086227E0E06858B95248006A92
:1011F00020F00100504908620846006A20F004000F
:10120000086219E0E06805280BD14B48006A40F0FD
:101210000400494908620846006A40F0010008627B
:101220000AE04548006A20F0010043490862084688
:10123000006A20F00400086200BFE068A0B1FFF778
:1012400097FC054609E0FFF793FC401B41F288310B
:10125000884202D9032077E622E03748006A00F08E
:1012600002000028EFD012E0FFF782FC054608E0FC
:10127000FFF77EFC401B41F28831884201D90320F0
:1012800062E62D48006A00F002000028F0D1012F2C
:1012900005D12948C06920F080502749C86100BFA6
:1012A000E069C8B32448406800F00C00082860D00A
:1012B000E069022848D1002020490866FFF758FC61
:1012C000054606E0FFF754FC401B022801D9032025
:1012D0003AE61948006800F000700028F2D1206A50
:1012E000B0F5803F07D11448406820F40030A16871
:1012F000084311494860D4E9080108430E49496888
:1013000021F4741108430C49486001200B49086618
:10131000FFF72EFC054607E03DE0FFF729FC401BE8
:10132000022801D903200FE60348006800F000708E
:101330000028F2D02FE000000010024000004242DE
:101340008004424200700040002014490866FFF704
:101350000FFC054606E0FFF70BFC401B022801D9F5
:101360000320F1E50E48006800F000700028F2D17B
:1013700011E0E069012800D1E6E50948466806F475
:101380008031206A814204D106F47011606A814282
:1013900001D00120D8E50020D6E50000000042423F
:1013A0000010024070B504462546681EB0F1807FEB
:1013B00001D301200FE0681E4FF0E02148610F21AA
:1013C0004FF0FF3000F086FD00204FF0E0218861F3
:1013D00007200861002070BD7047704710B50246B5
:1013E00000BF92F83C00012801D1022010BD01206D
:1013F00082F83C0000BF022082F83D00106843687C
:101400001068846823F070030868034324F08004A4
:10141000486804431068436010688460012082F8C3
:101420003D0000BF002082F83C0000BF00BFDDE7A8
:1014300010B504460CB9012010BD94F83D0028B940
:10144000002084F83C00204600F00CF8022084F8CC
:101450003D00211D206800F0D1FB012084F83D00F3
:101460000020E9E738B504460D492068884215D1C7
:1014700000BF0C48C06940F002000A49C861084634
:10148000C06900F00200009000BF00BF00221146BA
:101490001D20FFF7F3FB1D20FFF7E0FB38BD000028
:1014A00000040040001002400146022081F83D0087
:1014B0000868806800F00702062A05D008680068FE
:1014C00040F001000B681860012081F83D00002009
:1014D000704701460868C06840F001000B68D8609A
:1014E0000868806800F00702062A05D008680068CE
:1014F00040F001000B681860002070472DE9F041B2
:1015000004460D4600BF94F83C00012802D1022099
:10151000BDE8F081012084F83C0000BF022084F87F
:101520003D002068866826F0770626F47F4620680E
:1015300086602868502833D00CDC202850D004DC8A
:1015400000284BD0102851D149E0302849D04028FC
:101550004CD139E060282DD0702807D0B0F5805FDD
:1015600003D0B0F5005F41D10DE040E0D5E90213B2
:101570006A68206800F07CFB2068866846F0770681
:101580002068866033E0D5E902136A68206800F0BD
:101590006FFB2068806840F480402168886026E006
:1015A000EA686968206800F077FB5021206800F045
:1015B0006AFB1CE0EA686968206800F080FB602133
:1015C000206800F060FB12E0EA686968206800F0BB
:1015D00063FB4021206800F056FB08E000BF00BF1D
:1015E00000BF2968206800F04EFB00E000BF00BF8C
:1015F000012084F83D0000BF002084F83C0000BFBB
:1016000000BF85E7704710B5044620680069C0F345
:101610004000D8B12068C068C0F34000B0B16FF09E
:10162000020021680861012020772068806900F0AD
:10163000030018B12046FFF7E5FF05E0204600F063
:10164000ADF8204600F0ABF8002020772068006954
:10165000C0F38000D8B12068C068C0F38000B0B18A
:101660006FF00400216808610220207720688069FB
:1016700000F4407018B12046FFF7C4FF05E0204693
:1016800000F08CF8204600F08AF8002020772068CF
:101690000069C0F3C000D8B12068C068C0F3C000C2
:1016A000B0B16FF00800216808610420207720683D
:1016B000C06900F0030018B12046FFF7A3FF05E062
:1016C000204600F06BF8204600F069F800202077F3
:1016D00020680069C0F30010D8B12068C068C0F36A
:1016E0000010B0B16FF01000216808610820207769
:1016F0002068C06900F4407018B12046FFF782FFEF
:1017000005E0204600F04AF8204600F048F80020A6
:1017100020772068006900F0010058B12068C06897
:1017200000F0010030B16FF001002168086120462F
:1017300000F036F820680069C0F3C01058B1206886
:10174000C068C0F3C01030B16FF08000216808613C
:101750002046FFF741FE20680069C0F3801058B1B1
:101760002068C068C0F3801030B16FF0400021687D
:101770000861204600F015F820680069C0F34010A9
:1017800058B12068C068C0F3401030B16FF020003D
:10179000216808612046FFF720FE10BD70477047A2
:1017A0007047704700BFFEE700B585B0002001908C
:1017B00002900390049000BF3948806940F0100007
:1017C000374988610846806900F01000009000BF2A
:1017D00000BF00BF0846806940F0200088610846CD
:1017E000806900F02000009000BF00BF00BF0846E5
:1017F000806940F0080088610846806900F00800B0
:10180000009000BF00BF00BF0846806940F00400A0
:1018100088610846806900F00400009000BF00BFA6
:1018200000224FF4C0411F48FFF79CF900224FF4FB
:101830001C611D48FFF796F94FF4C040019001204C
:101840000290002003900220049001A91548FEF7A1
:10185000F1FF02200190002002900120039001A9D5
:101860001148FEF7E7FF4FF4086001901120029045
:10187000002003900320049001A90B48FEF7DAFF33
:101880004FF4A070019001200290002003900320EB
:10189000049001A90448FEF7CDFF05B000BD00008B
:1018A0000010024000100140000C014000B587B05C
:1018B0000020039004900590069001900290144837
:1018C00014490860232048600021124881600421E7
:1018D000C1600021016180218161FFF7A9FD08B18C
:1018E000FEF792FF4FF48050039003A90948FFF7D9
:1018F00005FE08B1FEF788FF00200190029001A9C3
:101900000448FFF76BFD08B1FEF77EFF07B000BD8E
:10191000000400403C00002000BFFEE77047704715
:1019200008B508490968C9084FF47A72B1FBF2F1A9
:101930004143009100BF00BF00994A1E0092002958
:10194000F9D108BD2C00002010B500248120FEF73D
:1019500027FE044604F00F00C4F3021101EB8101DD
:1019600000EB4100314908708320FEF719FE044660
:1019700004F00F00C4F3021101EB810100EB410000
:101980002A4948708520FEF70BFE044604F08000CB
:1019900080B1C4F3401000EB40008000C4F300119C
:1019A00001EB810100EB410004F00F0108441F49E5
:1019B000887009E004F00F00C4F3011101EB81010C
:1019C00000EB4100194988708720FEF7E9FD0446C5
:1019D00004F00F00C4F3011101EB810100EB4100A1
:1019E0001249C8708920FEF7DBFD044604F00F00A1
:1019F000C4F3001101EB810100EB41000B490871B8
:101A00008B20FEF7CDFD044604F00700074948711E
:101A10008D20FEF7C5FD044604F00F00210901EBFF
:101A2000810100EB41000149887110BD0D000020CB
:101A300010B500F01DF8FF2804D109480078401CBB
:101A40000749087006480078082808D10020044992
:101A5000087004490880044908700449887210BD60
:101A600002000020000000200300002030000020C1
:101A700010B528480088401D26490880084600887F
:101A80000F2817D004DC052807D00A283ED10BE028
:101A90003C2830D07D2839D133E000224FF400615A
:101AA0001D48FFF75FF831E00122D1021A48FFF725
:101AB00059F82BE0012291021748FFF753F84FF431
:101AC00000611548FFF746F8002809DD1348007A41
:101AD00013490A780121914008431049087203E034
:101AE0000E48007A0D49087200224FF480610A48BE
:101AF000FFF738F80AE00122D1020748FFF732F871
:101B000004E0002003490880FF2010BD00BF00BF93
:101B1000FBE7000000000020000C01403000002026
:101B200002000020704710B5FFF728F810BD00B57F
:101B30008FB0282105A8FEF70CFB14216846FEF79C
:101B400008FB01200590000406900020079001206A
:101B5000099002200C90C1030D914FF4E0110E91F9
:101B600005A8FFF7EDF908B1FEF74EFE0F20009033
:101B70000220019080200290002003900490022116
:101B80006846FFF7CDF808B1FEF73EFE0FB000BD86
:101B90001148006840F001000F490860084640689D
:101BA0000E4908400C494860084600680C49084046
:101BB000094908600846006820F48020086008464B
:101BC000406820F4FE0048604FF41F008860C8039E
:101BD0000449086070470000001002400000FFF850
:101BE000FFFFF6FE08ED00E010B50348FFF70BFD20
:101BF000FEF708FD10BD00003C00002010B5026893
:101C0000184B984208D0B0F1804F05D0164B98423F
:101C100002D0164B984203D122F070024B681A434F
:101C2000104B984208D0B0F1804F05D00E4B98422F
:101C300002D00E4B984203D122F44072CB681A4373
:101C400022F080034C6943EA040202608B68C3629D
:101C50000B688362034B984201D10B690363012334
:101C6000436110BD002C014000040040000800400A
:101C700030B50C46816821F47F4142EA03252543B3
:101C80002943816030BD0A46816821F0700142F02D
:101C9000070319438160704730B50B461446026A4A
:101CA000056A25F001050562816921F0F00141EA2C
:101CB000041122F00A021A438161026230BD30B57C
:101CC0000B461446056A25F0100505628169026A13
:101CD00021F4704141EA043122F0A00242EA0312E9
:101CE0008161026230BD00BFFEE7000070B50021D7
:101CF0008E20FEF771FC00218E20FEF76DFC002582
:101D00000024414800780A2190FBF1F201FB120007
:101D1000C4B23D480078001B90FBF1F00007050EAF
:101D2000254305F07F0529468020FEF755FC002558
:101D30000024354840780A2190FBF1F201FB1200A3
:101D4000C4B231484078001B90FBF1F00007050E4B
:101D5000254329468220FEF73FFC002500242A481F
:101D600080780A2190FBF1F201FB1200C4B22648F0
:101D70008078001B90FBF1F00007050E254305F06D
:101D80003F0529468420FEF727FC002500241E4835
:101D9000C0780A2190FBF1F201FB1200C4B21A488C
:101DA000C078001B90FBF1F00007050E2543294683
:101DB0008620FEF711FC144801798820FEF70CFC00
:101DC000114841798A20FEF707FC002500240E48BF
:101DD00080790A2190FBF1F201FB1200C4B20A489B
:101DE0008079001B90FBF1F00007050E2543294682
:101DF0008C20FEF7F1FB80218E20FEF7EDFB802189
:101E00008E20FEF7E9FB70BD1400002010B50B49D1
:101E1000487A00F019F8FF2804D109480078401CDE
:101E20000749087006480078082806D100200349B1
:101E30008872034908700349088010BD30000020F3
:101E4000020000200000002010B504461A48008857
:101E500020B1052809D03C2825D11AE000224FF4F2
:101E600000611648FEF77EFE1DE01548017801204E
:101E700088402040002805DD0122D1020F48FEF7EE
:101E800071FE05E000224FF400610C48FEF76AFE87
:101E900009E00122D1020948FEF764FE002006494C
:101EA0000880FF2010BD00BF03480088401D80B29D
:101EB0000149088000BFF5E700000020000C014048
:101EC0000200002002480068C0F3022070470000B2
:101ED0000CED00E010B5002804DB0A07130E054ADC
:101EE000135406E00A07140E034A00F00F031B1FE9
:101EF000D45410BD00E400E018ED00E002E008C892
:101F0000121F08C1002AFAD170477047002001E073
:101F100001C1121F002AFBD17047000086B0FEF7F6
:101F200039FEFFF704FEFFF73FFCFFF7BFFC002080
:101F300005900598FF2810D10520494908703120E7
:101F400048700F2088700720C87003204871042053
:101F5000087115208871FFF7C9FE40F269554FF4EA
:101F60009678404C4FF07E512046FEF7FDF88146B2
:101F700026463D48FFF798FA3B48FFF7AAFA4FF488
:101F80007A70FEF743FC6AE038480078FF2806D1F3
:101F90003648406836490860002034490870FFF729
:101FA000D3FC344890F800A090F801B080780490F9
:101FB0003048C07803902F48407902902D4800792E
:101FC00001902C48807900902A48407829498978E6
:101FD000C1EB011100EB810702212748FEF7BAFD92
:101FE000002809DD0A20FEF711FC02212248FEF735
:101FF000B1FD002800DD6F1DAF4201D847451ED25C
:1020000031461B480068FEF7A3F90BD801225103A3
:102010001A48FEF7A7FD012291031848FEF7A2FD1A
:102020004E4617E02646012251031448FEF79AFD5A
:1020300000224FF480411148FEF794FD0AE001228E
:1020400051030E48FEF78EFD00224FF480410B48ED
:10205000FEF788FD41F28830FEF7D8FB00BF93E71A
:1020600014000020000070413C000020040000200B
:102070001C0000200D000020000C01400010014059
:102080000000000000000000010203040607080928
:102090000000000001020304B82000080000002036
:1020A00030000000FC1E0008E8200008300000207E
:1020B000500400000C1F0008000000000000000099
:1020C0000000000000000000000000000000000010
:1020D00000000000000000000000000010000000F0
:0820E000010000000024F400DF
:04000005080000ED02
:00000001FF
